S01100002E2E2F50726F746575732E73313966
S32D0000C000000000205DC2000011C3000017C300001DC3000023C3000029C3000000000000000000000000000073
S32D0000C028000000002FC3000035C30000000000003BC3000041C30000B9D90000C5D90000D1D90000DDD900006E
S32D0000C050E9D90000F5D9000001DA00000DDA000019DA000025DA000031DA00003DDA000049DA000055DA00000A
S32D0000C07861DA00006DDA000079DA000085DA000091DA00009DDA0000A9DA0000B5DA0000C1DA0000CDDA000030
S32D0000C0A0D9DA0000E5DA0000F1DA0000FDDA000009DB000015DB000021DB00002DDB000039DB000045DB000052
S32D0000C0C851DB00005DDB000069DB000075DB000081DB00008DDB000099DB0000A5DB0000B1DB0000BDDB000076
S32D0000C0F0C9DB0000F52E0100D5DB0000E1DB0000EDDB0000F9DB000005DC000011DC00001DDC000029DC000086
S32D0000C11835DC000041DC00004DDC000059DC000065DC000071DC00007DDC000089DC000095DC0000A1DC000033
S32D0000C140ADDC0000B9DC0000C5DC0000D1DC000069050100DDDC0000E9DC0000F5DC000001DD00000DDD0000DF
S32D0000C16819DD000025DD000031DD00003DDD000049DD000055DD000061DD00006DDD000079DD000085DD0000F1
S32D0000C19091DD00009DDD0000A9DD00006101010029000100C50001003DD7000001020100B5DD0000C1DD000078
S32D0000C1B8CDDD000064C0010000000020C816000064C001000000FF1F00000000C8160020840400000000FF1FA5
S32D0000C1E00000000080B489B000AFF860B9607A60BB68FB61FB68BB6100237B617A697B689A420BD2BA69131DFB
S32D0000C208BB61FB69191DF96112681A607B6904337B61EFE700BF2437BD4680BC704780B485B000AF786039609E
S32D0000C2307B68FB600023BB60BA683B689A4208D2FB681A1DFA6000221A60BB680433BB60F2E700BF1437BD46FE
S32D0000C25880BC704780B586B000AF72B6234B4CF220521A80214B4DF628121A80204B4FF4E9721A801F4B7B615F
S32D0000C2807B691F4A934214D27B691A1D7A611B683B617B691A1D7A611B68FB607B691A1D7A611B68BB60BA68E9
S32D0000C2A8F9683869FFF79AFFE6E77B69134A93420ED27B691A1D7A611B68FB607B691A1D7A611B68BB60B9688B
S32D0000C2D0F868FFF7A8FFECE70B4B7B600B4A7B681A6008F087FF62B601F0F0FA00F0D8F8FEE700BF0E20054045
S32D0000C2F800200540BCC10000D4C10000E4C1000008ED00E000C0000080B400AFFEE780B400AFFEE780B400AFF4
S32D0000C320FEE780B400AFFEE780B400AFFEE780B400AFFEE780B400AFFEE780B400AFFEE780B400AFFEE780B426
S32D0000C34800AFFEE7FFFFFFFFFFFFFFFFFFFFFFFFFFFFFFFFFFFFFFFFFFFFFFFFFFFFFFFFFFFFFFFFFFFFFFFF57
S32D0000C370FFFFFFFFFFFFFFFFFFFFFFFFFFFFFFFFFFFFFFFFFFFFFFFFFFFFFFFFFFFFFFFFFFFFFFFFFFFFFFFFC7
S32D0000C398FFFFFFFFFFFFFFFFFFFFFFFFFFFFFFFFFFFFFFFFFFFFFFFFFFFFFFFFFFFFFFFFFFFFFFFFFFFFFFFF9F
S32D0000C3C0FFFFFFFFFFFFFFFFFFFFFFFFFFFFFFFFFFFFFFFFFFFFFFFFFFFFFFFFFFFFFFFFFFFFFFFFFFFFFFFF77
S32D0000C3E8FFFFFFFFFFFFFFFFFFFFFFFFFFFFFFFFFFFFFFFFFFFFFFFFFFFFFFFFFFFFFFFFFFFFFFFFFEFFFFFF50
S32D0000C44010B5054C237833B9044B13B10448AFF300800123237010BDC81600200000000010C4000008B5034B4F
S32D0000C4681BB103490348AFF3008008BD00000000CC16002010C4000080B483B000AFC7E900013A68796821F02B
S32D0000C4900043104619460C37BD4680BC7047000090B585B000AF484B00221A7040F22F31464804F023FA40F67E
S32D0000C4B89801444804F03BFA4FF00000424900F047FB4249424807F0B5F90021414804F054FE41493F4805F05C
S32D0000C4E0E9F83A463B1D19463C4804F01DFF034683F00103DBB2002B00D0F2E70021374804F03FFE3749354893
S32D0000C50805F0D4F803F0CCFBC7E90201344803F0F3FE03464FF07E51184608F0BBFC0346002B13D003F0BCFB12
S32D0000C530D7E9022307F0FEFC02460B46104619464FF00002294B08F01FF90346002B01D0012300E00023002B5D
S32D0000C55829D0234803F0D0FE034619461D4805F0CBF815A1D1E9000103F074FB03F098FBD7E9022307F0DAFCC0
S32D0000C58002460B461046194601231C464FF00002174B08F017F90346002B01D100231C46E3B2002BB6D0084BAA
S32D0000C5A801221A70B2E700F081FC002318461437BD4690BDAFF300809A9999999999B93FE41600201017002084
S32D0000C5D0008066404CB501006C1A0020041A002058B501006CB501000C170020000034400000334080B582B070
S32D0000C5F800AF78603960386808F03CFA03461946074801F065FC786808F034FA03461946044801F05DFC00BFDB
S32D0000C6200837BD4680BD00BFE8160020F0160020F0B589B000AFC7E90201C7E90023D7E90201FFF71DFF5EA381
S32D0000C648D3E9002307F02AFE02460B46104619465BA3D3E9002307F04BFF02460B461046194608F0B5F803461E
S32D0000C670FB61574803F022FE564803F01FFE564806F0DEFA0346184607F0B4FD02460B464FF00000514907F0BC
S32D0000C6982FFF02460B4610461946D7E90E2307F0FDFD02460B461046194608F0D9F80346BB61474806F0C0FA5B
S32D0000C6C00346184607F096FD02460B464FF00000424907F011FF02460B4610461946D7E9002307F0DFFD024665
S32D0000C6E80B461046194608F0BBF803467B614FF000024FF00003D7E9020108F05FF80346002B0CD0786908F090
S32D0000C710CFFB0446B86908F0CBFB034619462046FFF768FF11E07B6983F00043184608F0BFFB0446BB6983F021
S32D0000C7380043184608F0B8FB034619462046FFF755FF224803F0A4FD04461F4803F0A0FD03462344184607F0EB
S32D0000C76037FD4FF000024FF0804307F0C5FE02460B4614461D46F86907F02AFD02460B4601210E4620462946C1
S32D0000C78807F0FEFF0346002B01D100231E46F3B2002B00D0D5E7104801F058FB0F4801F055FB4FF000000E499C
S32D0000C7B003F054FA00BF2437BD46F0BDAFF300800000000000E073403023337F7CD92240FC160020F81600207F
S32D0000C7D8501A002000002740F0160020E81600200000E03F00000000F0B587B000AFC7E90001D7E90001FFF7EC
S32D0000C8003FFE53A3D3E9002307F04CFD02460B461046194650A3D3E9002307F06DFE02460B461046194607F0F1
S32D0000C828D7FF03467B614C4803F044FD4B4803F041FD4B4806F000FA0346184607F0D6FC02460B464FF0000090
S32D0000C850464907F051FE02460B46104619464FF00002434B07F01EFD02460B461046194607F0FAFF03463B6193
S32D0000C8784FF07E51386908F049F80346FB604FF000024FF00003D7E9000107F097FF0346002B0CD0F86808F08D
S32D0000C8A007FB0446386908F003FB034619462046FFF7A0FE11E0FB6883F00043184608F0F7FA04463B6983F033
S32D0000C8C80043184608F0F0FA034619462046FFF78DFE224803F0DCFC04461F4803F0D8FC03462344184607F07E
S32D0000C8F06FFC4FF000024FF0804307F0FDFD02460B4614461D46786907F062FC02460B4601210E46204629460B
S32D0000C91807F036FF0346002B01D100231E46F3B2002B00D0D5E7114801F090FA104801F08DFA4FF000000F4961
S32D0000C94003F08CF900BF1C37BD46F0BDAFF300800000000000E073403023337F7CD92240FC160020F8160020BE
S32D0000C968501A00200000274000804140F0160020E81600200000E03FF0B589B000AFC7E9000161A3D3E900232B
S32D0000C990C7E9062360A3D3E90023D7E9060107F081FC02460B4614461D46D7E90001FFF767FD4FF00002604B26
S32D0000C9B807F09EFD02460B462046294607F06EFC02460B46C7E9042353A3D3E90023D7E9040107F063FC024648
S32D0000C9E00B461046194650A3D3E9002307F084FD02460B461046194607F0EEFE0346FB604E4803F05BFC4E488E
S32D0000CA0803F058FC4D4806F017F90346184607F0EDFB02460B464FF00000494907F068FD02460B461046194684
S32D0000CA304FF00002454B07F035FC02460B461046194607F011FF0346BB604FF000024FF00003D7E9000107F0EB
S32D0000CA58B5FE0346002B0FD0B86808F025FA0446BB6883F00043184608F01EFA034619462046FFF7BBFD0EE038
S32D0000CA80BB6883F00043184608F012FA0446B86808F00EFA034619462046FFF7ABFD284803F0FAFB0446254828
S32D0000CAA803F0F6FB03462344184607F08DFB4FF000024FF0804307F01BFD02460B4614461D46F86807F080FB75
S32D0000CAD002460B4601210E462046294607F054FE0346002B01D100231E46F3B2002B00D0D5E7174801F0AEF9EB
S32D0000CAF8164801F0ABF90CA1D1E9000103F0AAF800BF2437BD46F0BD3333333333332040EA2E4454FB210940AF
S32D0000CB2000000000002073403023337F7CD922409A9999999999B93F00807640FC160020F8160020501A0020A9
S32D0000CB480000274000804140E8160020F016002080B582B000AFC7E90001D7E9000107F07FFE0346194608481F
S32D0000CB7003F0FEFE04A1D1E9000103F06FF800BF0837BD4680BD00BF9A9999999999B93F1017002080B582B0B4
S32D0000CB9800AFC7E900014FF000024FF00003D7E9000107F0EDFD0346002B04D00D490E4801F08EF903E00D4945
S32D0000CBC00B4801F089F9D7E90001FFF759FC02460B461046194603F041F84FF00001044801F07AF900BF08370D
S32D0000CBE8BD4680BD000096421C170020000096C290B583B000AF78602D4803F07DFB0346184607F0F3FA0123CE
S32D0000CC101C4627A3D3E9002307F0D4FD0346002B01D100231C46E3B2002B03D07B6800221A6036E0214803F0D4
S32D0000CC3863FB0346184607F0D9FA01231C461AA3D3E9002307F0BAFD0346002B01D100231C46E3B2002B03D0D1
S32D0000CC607B6801221A601CE0154803F049FB0346184607F0BFFA01231C460DA3D3E9002307F0A0FD0346002B22
S32D0000CC8801D100231C46E3B2002B03D07B6802221A6002E07B6800221A6000BF0C37BD4690BD00BFAFF300807F
S32D0000CCB0666666666666FE3F04170020081700200017002000000000F0B587B000AFC7E90001D7E90001FFF711
S32D0000CCD8D3FB67A3D3E9002307F0E0FA02460B461046194664A3D3E9002307F001FC02460B461046194607F039
S32D0000CD006BFD0346FB60624803F0D8FA614803F0D5FA614805F094FF0346184607F06AFA02460B464FF0000014
S32D0000CD285C4907F0E5FB02460B46104619464FF00002594B07F0B2FA02460B461046194607F08EFD03467B6196
S32D0000CD504FF07E51786907F0DDFD03463B614FF000024FF00003D7E9000107F00DFD0346002B07D07B6983F029
S32D0000CD7800437B613B6983F000433B610023BB6007F108031846FFF733FF404803F080FA04463D4803F07CFA84
S32D0000CDA003462344184607F013FA4FF000024FF0804307F0A1FB02460B4614461D46F86807F006FA02460B4637
S32D0000CDC801210E462046294607F0DAFC0346002B01D100231E46F3B2002B3AD0BB6819462E4804F076FCBB68FD
S32D0000CDF0022B0FD0022B21DC002B02D0012B13D01CE07969284801F067F83969274801F063F814E04FF00001A4
S32D0000CE18234801F05DF83969224801F059F80AE079691F4801F054F84FF000011D4801F04FF800E000BF07F109
S32D0000CE4008031846FFF7D8FE0FA1D1E9000102F005FF144804F0ABF99BE7144800F0FAFF114800F0F7FF4FF0F5
S32D0000CE680000114902F0F6FE00BF1C37BD46F0BD0000000000E073403023337F7CD922409A9999999999A93FCC
S32D0000CE90FC160020F8160020501A00200000274000804140041A0020E8160020F01600200000E03F80B500AF9D
S32D0000CEB8574B1B7883F00103DBB2002B0BD04FF000005449FFF790FC4FF000004FF08041FFF78AFC04E04FF0D1
S32D0000CEE000004F49FFF784FC00F0C0F800214D4804F047F94FF000004B49FFF779FC4FF000004A49FFF73CFD45
S32D0000CF084FF000004849FFF76FFC4FF000004749FFF76AFC4FF000004549FFF72DFD00F0E9F800213D4804F047
S32D0000CF3028F94FF000004149FFF722FD4FF000003F49FFF755FC4FF000003E49FFF718FD4FF000003149FFF746
S32D0000CF584BFC00F069F90021304804F00EF94FF000003749FFF708FD4FF000004FF04041FFF73AFC4FF000005A
S32D0000CF803249FFF735FC4FF000003149FFF79CFE0021244804F0F5F800F00EFA0021214804F0EFF84FF000008E
S32D0000CFA82A49FFF721FC4FF000002949FFF7E4FC00F0D6FA0021194804F0DFF84FF000002449FFF711FC4FF053
S32D0000CFD000002349FFF7D4FC4FF000001F49FFF707FC4FF000000E49FFF702FC4FF000001249FFF7C5FC4FF047
S32D0000CFF800001A49FFF7F8FB4FF000001749FFF7BBFC4FF000001649FFF7EEFB00BF80BDE41600200000F0BF31
S32D0000D0200000F03F041A00200000F8BF00805640000010C00000304000003EC0008056C00000154000005940E6
S32D0000D048000059C0000014400000184000001C4000005EC000001CC0008046C000002E400000244080B500AF63
S32D0000D0700021194804F085F81849174804F01AFB4FF000004FF00001FFF766FD4FF000001349FFF775FC4FF0BD
S32D0000D09800001249FFF7A8FB4FF000001049FFF76BFC4FF000000F49FFF79EFB4FF000000D49FFF76BFD4FF029
S32D0000D0C000000C4902F0CAFD4FF000000A49FFF761FD00BF80BD00BF041A002074B50100000054C000001840BF
S32D0000D0E80000374000000640000002400000E03F000002C080B584B002AF0021394804F03CF83949374804F061
S32D0000D110D1FA4FF000003749FFF76AFB4FF000003549FFF72DFC4FF000003449FFF760FB4FF000003249FFF773
S32D0000D13823FC4FF00002314BCDE900234FF000022F4B4FF000002F49FFF76EFA4FF000022D4BCDE900234FF073
S32D0000D1600002294B4FF000004FF04041FFF760FA00237B60274806F09BFD0346002B0CBF01230023DBB2002BA3
S32D0000D1882BD07B6801337B604FF00002204BCDE900234FF000021F4B4FF000001E49FFF743FA79681D4B83FBBC
S32D0000D1B00132CB17D21A13465B001344CA1A002A04D14FF000001849FFF712FB7B6803F00703002BCED14FF0D6
S32D0000D1D800000C49FFF7D0FBC8E700BF0837BD4680BD00BF041A002080B5010000002840000039C0000014403E
S32D0000D20000002EC00080414000004440000008C0000049406C1A002000004E4000004F400000F0BF5655555575
S32D0000D2280000E03F0000000080B582B002AF00214B4803F0A2FF4B49494804F037FA4FF000004949FFF784FCC8
S32D0000D2504FF00000474902F001FD4FF000004649FFF7C6FA4FF000004449FFF775FC4FF00000404902F0F2FC92
S32D0000D2784FF00002404BCDE900234FF000023F4B4FF000003E49FFF7CFF94FF000003D49FFF772FB4FF000022B
S32D0000D2A03B4BCDE900234FF00002364B4FF000003849FFF7BDF94FF000003749FFF760FB4FF00002354BCDE94C
S32D0000D2C800234FF000022D4B4FF000003249FFF7ABF94FF000003149FFF786FA4FF000002F49FFF749FB4FF0A9
S32D0000D2F00002234BCDE900234FF000022B4B4FF000002B49FFF794F94FF000004FF00001FFF722FC4FF0000008
S32D0000D318164902F09FFC4FF000001B49FFF72CFB4FF000002149FFF75FFA09A1D1E90001FFF70EFC08A1D1E97B
S32D0000D340000102F08BFC4FF000004FF04041FFF74FFA00BFBD4680BD0000000000C052409A9999999999D93F07
S32D0000D368041A00208CB5010000405B400000E03F00000840004050400080414000804540000016C00080554014
S32D0000D3900080404000001EC000805BC000003F40000034C00000044000805A400000444000003D4000001040D4
S32D0000D3B82DE9B04382B000AF0021614803F0DDFE60495F4804F072F90023FB7000237B605D4802F091FF03461A
S32D0000D3E0184606F007FF4CA3D3E9002306F0A2FD02460B46144623F0004549A3D3E900232046294607F0DEF9A9
S32D0000D4080346002B1FD0504802F076FF0346184606F0ECFE42A3D3E9002306F087FD02460B46904623F0004904
S32D0000D4303FA3D3E900234046494607F0C3F90346002B04D07B68072B01DC012300E00023002B08D032A1D1E954
S32D0000D4580001FFF7C9F97B6801337B60B8E74FF000003A49FFF774FB374802F045FF03461946334804F040F930
S32D0000D480334802F03DFF0346012214464FF07E51184607F0E5FC0346002B01D100231C46E3B2002B19D04FF414
S32D0000D4A87F01274803F069FE21A1D1E90001FFF763FA4FF000002649FFF796F91CA1D1E90001FFF759FA1CA18C
S32D0000D4D0D1E90001FFF78CF917E0FF211A4803F050FE15A1D1E90001FFF74AFA4FF000001A49FFF77DF910A1D4
S32D0000D4F8D1E90001FFF740FA4FF000001649FFF773F900BF0837BD46BDE8B083AFF30080333333333333FF3FB0
S32D0000D5209A9999999999B93F666666666666F63F333333333333D33F0000000000C0554033333333333329C001
S32D0000D548041A0020A4B501000C1700200080664000001040000010C0000029C00000000080B582B000AF002174
S32D0000D570394803F006FE3949374804F09BF84FF000004FF00001FFF7E7FA31A1D1E9000102F064FB4FF000001A
S32D0000D5983149FFF7F1F94FF000003049FFF724F94FF000002E49FFF7D3FA27A1D1E9000102F050FB4FF00000C8
S32D0000D5C02749FFF7DDF94FF000002849FFF710F94FF000002649FFF7D3F94FF000002549FFF7BAFA4FF000004C
S32D0000D5E81E4902F037FB4FF000002149FFF7FCF84FF000001F49FFF7ABFA13A1D1E9000102F028FB4FF00000F2
S32D0000D6101649FFF7EDF81A4806F03CFB78607B68022B09D07B68022B08DC7B68002B07D07B68012B06D001E0C3
S32D0000D63800BF04E000BF02E000BF00E000BF00BF0837BD4680BD00BF333333333333E33F041A0020ACB5010031
S32D0000D660000034400000144000406040000014C000003EC00080664000001640000054406C1A002080B582B005
S32D0000D68800AF786039607B68012B2FD13B684FF6FF7293422AD1174A0121174800F098FB144A0021154800F0EB
S32D0000D6B093FB0021144802F041FB1D21134802F03DFB1021124802F00BFE1121114802F007FE1221104802F0CB
S32D0000D6D803FE01210F4802F0FFFD00210E4803F0EDF80E4A02210E4800F072FB00BF0837BD4680BD00001041B0
S32D0000D700E8160020F0160020F8160020FC1600200017002004170020081700200C170020101700200000A0403C
S32D0000D7281C17002080B500AF4FF6FF710120FFF7A5FF80BD80B500AF0F4BD3F8A03003F48053002B14BF01232A
S32D0000D7500023DBB2002B10D0094BD3F8A030084A23F48053C2F8A030064806F059FB064B1B68054A23F4005316
S32D0000D778136000BF80BD00BF00C004407C1A0020C0F00F4080B400AF124B4FF480725A63114B5B69104A43F4B9
S32D0000D7A0005353610E4B1B680D4A43F4005313600A4B0C4A1A630C4BD3F888310A4A43F08063C2F88831084BF1
S32D0000D7C89B68074A43F08063936000BFBD4680BC704700BF00C00440C0F00F4003010A0000E100E080B400AFAD
S32D0000D7F0334B00225A70324B98221A70304B9B79DBB203F01003002B14BF01230023DBB2002B00D0F2E72A4BA3
S32D0000D8189B79DBB29B08DBB203F00303022B14BF01230023DBB2002B00D0F0E7224B18221A71214B00225A71E7
S32D0000D840204B03F580531A461F4B53641C4B54225A711B4B9B79DBB203F02003002B0CBF01230023DBB2002B49
S32D0000D86800D0F2E7144B9B79DBB203F04003002B0CBF01230023DBB2002B00D0F2E70E4B1B78DBB20C4A03F053
S32D0000D8903F03DBB213700A4B9B79DBB29B08DBB203F00303032B14BF01230023DBB2002B00D0F0E700231846D1
S32D0000D8B8BD4680BC704700BF00400640007004400000130180B500AF314B03F580539B6B2F4A43F4785302F59C
S32D0000D8E080529363FFF752FFFFF780FF2B4B58221A602A4B1B684FF47A7202FB03F3284A1360274B1B681A46D8
S32D0000D908234B03F580535B6C1B0E03F00F030133B2FBF3F31A46214B1A601D4B03F58053DB6B1B4A43F0225330
S32D0000D93002F58052D363184B03F580531B6B164A43F0006302F580521363174B4FF480721A61642002F058F809
S32D0000D958134B5B69124A23F010035361104B00221A600F4B10225A610E4803F0A9FA02F0ABFD02F009FE0C4838
S32D0000D98002F0A4F80B4806F09FFA4FF4FA6002F04FF900BF80BD00BF00700440501900204C1900205419002028
S32D0000D9A800D00340041A002048190020EC1A002080B500AFFEF7C3FC00BF80BD80B500AFFEF7BDFC00BF80BD37
S32D0000D9D080B500AFFEF7B7FC00BF80BD80B500AFFEF7B1FC00BF80BD80B500AFFEF7ABFC00BF80BD80B500AFBF
S32D0000D9F8FEF7A5FC00BF80BD80B500AFFEF79FFC00BF80BD80B500AFFEF799FC00BF80BD80B500AFFEF793FC2D
S32D0000DA2000BF80BD80B500AFFEF78DFC00BF80BD80B500AFFEF787FC00BF80BD80B500AFFEF781FC00BF80BDD4
S32D0000DA4880B500AFFEF77BFC00BF80BD80B500AFFEF775FC00BF80BD80B500AFFEF76FFC00BF80BD80B500AFFA
S32D0000DA70FEF769FC00BF80BD80B500AFFEF763FC00BF80BD80B500AFFEF75DFC00BF80BD80B500AFFEF757FCA4
S32D0000DA9800BF80BD80B500AFFEF751FC00BF80BD80B500AFFEF74BFC00BF80BD80B500AFFEF745FC00BF80BD10
S32D0000DAC080B500AFFEF73FFC00BF80BD80B500AFFEF739FC00BF80BD80B500AFFEF733FC00BF80BD80B500AF36
S32D0000DAE8FEF72DFC00BF80BD80B500AFFEF727FC00BF80BD80B500AFFEF721FC00BF80BD80B500AFFEF71BFC1C
S32D0000DB1000BF80BD80B500AFFEF715FC00BF80BD80B500AFFEF70FFC00BF80BD80B500AFFEF709FC00BF80BD4B
S32D0000DB3880B500AFFEF703FC00BF80BD80B500AFFEF7FDFB00BF80BD80B500AFFEF7F7FB00BF80BD80B500AF73
S32D0000DB60FEF7F1FB00BF80BD80B500AFFEF7EBFB00BF80BD80B500AFFEF7E5FB00BF80BD80B500AFFEF7DFFB97
S32D0000DB8800BF80BD80B500AFFEF7D9FB00BF80BD80B500AFFEF7D3FB00BF80BD80B500AFFEF7CDFB00BF80BD8A
S32D0000DBB080B500AFFEF7C7FB00BF80BD80B500AFFEF7C1FB00BF80BD80B500AFFEF7BBFB00BF80BD80B500AFB0
S32D0000DBD8FEF7B5FB00BF80BD80B500AFFEF7AFFB00BF80BD80B500AFFEF7A9FB00BF80BD80B500AFFEF7A3FB0F
S32D0000DC0000BF80BD80B500AFFEF79DFB00BF80BD80B500AFFEF797FB00BF80BD80B500AFFEF791FB00BF80BDC5
S32D0000DC2880B500AFFEF78BFB00BF80BD80B500AFFEF785FB00BF80BD80B500AFFEF77FFB00BF80BD80B500AFEB
S32D0000DC50FEF779FB00BF80BD80B500AFFEF773FB00BF80BD80B500AFFEF76DFB00BF80BD80B500AFFEF767FB86
S32D0000DC7800BF80BD80B500AFFEF761FB00BF80BD80B500AFFEF75BFB00BF80BD80B500AFFEF755FB00BF80BD01
S32D0000DCA080B500AFFEF74FFB00BF80BD80B500AFFEF749FB00BF80BD80B500AFFEF743FB00BF80BD80B500AF27
S32D0000DCC8FEF73DFB00BF80BD80B500AFFEF737FB00BF80BD80B500AFFEF731FB00BF80BD80B500AFFEF72BFBFE
S32D0000DCF000BF80BD80B500AFFEF725FB00BF80BD80B500AFFEF71FFB00BF80BD80B500AFFEF719FB00BF80BD3D
S32D0000DD1880B500AFFEF713FB00BF80BD80B500AFFEF70DFB00BF80BD80B500AFFEF707FB00BF80BD80B500AF62
S32D0000DD40FEF701FB00BF80BD80B500AFFEF7FBFA00BF80BD80B500AFFEF7F5FA00BF80BD80B500AFFEF7EFFA78
S32D0000DD6800BF80BD80B500AFFEF7E9FA00BF80BD80B500AFFEF7E3FA00BF80BD80B500AFFEF7DDFA00BF80BD7B
S32D0000DD9080B500AFFEF7D7FA00BF80BD80B500AFFEF7D1FA00BF80BD80B500AFFEF7CBFA00BF80BD80B500AFA1
S32D0000DDB8FEF7C5FA00BF80BD80B500AFFEF7BFFA00BF80BD80B500AFFEF7B9FA00BF80BD80B584B000AFF86007
S32D0000DDE00B467A60FB72FB68FA7A1A71FB6800225A711749786807F051F80346002B02D0134B7B600AE04FF0A3
S32D0000DE087E51786807F032F80346002B02D04FF07E537B60786806F0E9F909A3D3E9002306F03CFA02460B46E3
S32D0000DE301046194606F018FD0246FB681A60FB6818461037BD4680BDABAAAAAAAAAA20400000404180B582B052
S32D0000DE5800AF78607B685B79002B09D07B6800225A717B6819791E230022034801F064FE00BF0837BD4680BDD6
S32D0000DE804819002080B584B000AF786039603B687F2B02DD7F23FB7308E03B6813F1800F02DA8023FB7301E042
S32D0000DEA83B68FB737B685B79FA7B9A4209D07B68FA7B5A717B681979FA7B1E23034801F03BFE00BF1037BD468E
S32D0000DED080BD00BF48190020B0B584B000AF786039603749386806F0BBFF0346002B02D0334B3B6008E033495B
S32D0000DEF8386806F0CFFF0346002B01D02F4B3B60386806F073F904460D467B681B68184606F06CF94FF000023F
S32D0000DF20294B06F0E9FA02460B462046294606F0B9F902460B461046194606F095FC03463B604FF000013868D7
S32D0000DF4806F09EFF0346002B10D0386806F04EF917A3D3E9002306F0A1F902460B461046194606F035FC034600
S32D0000DF70FB6018E0386806F03DF94FF00002134B06F090F902460B46104619464FF000020D4B06F0B1FA024676
S32D0000DF980B461046194606F01BFC0346FB60F9687868FFF76BFF00BF1037BD46B0BD00BF52B81E85EB51F43FB2
S32D0000DFC00000C8C20000C842000059400000604080B483B000AF03460A46FB711346BB71BB79002B03D1134B35
S32D0000DFE800221A7002E0114B01221A703823FB710E4B1A78FB791343FB710D4B9B78DBB20B4A43F01003DBB26C
S32D0000E0109370094B9B78DBB2074A43F02003DBB29370054AFB79137100BF0C37BD4680BC704700BF241700205B
S32D0000E0380060064080B483B000AF01237B607B68312B04DC00BF7B6801337B60F7E700BF0C37BD4680BC704759
S32D0000E06080B582B000AF03460A46FB711346BB71134B1B7800211846FFF7AAFF00F024F8104AFB79137100F095
S32D0000E0881FF80E4ABB79137100F01AF80B4B9B78DBB20A4A23F02003DBB29370074B9B78DBB2064A23F01003C9
S32D0000E0B0DBB29370FFF7C2FF00BF0837BD4680BD251700200060064080B483B000AF174B1B78002B24D100236D
S32D0000E0D87B60154BDB78DBB203F00203002B0CBF01230023DBB2002B0DD07B6842F21072934203DD0B4B01226E
S32D0000E1001A7004E07B6801337B6000BFE5E7084BDB78DBB2064A43F00203DBB2D37000E000BF0C37BD4680BC5A
S32D0000E128704700BF261700200060064080B582B000AF0346FB71FB79184600F05FF800BF0837BD4680BD80B5F9
S32D0000E15082B000AF03460A46FB711346BB7100F035F8FB795B00DBB21846FFF7E3FFBB791846FFF7DFFF00F031
S32D0000E17837F800BF0837BD4680BD80B500AFFF2000F03CF80346184680BD80B584B000AF0346FB7100F016F836
S32D0000E1A0FB795B005BB243F001035BB2DBB21846FFF7C0FFFFF7E5FF0346FB7300F014F8FB7B18461037BD46E6
S32D0000E1C880BD000080B400AF044B9B68034A43F48013936000BFBD4680BC704740F00F4080B400AF044B5B6884
S32D0000E1F0034A43F48013536000BFBD4680BC704740F00F4080B485B000AF0346FB710023BB73164BDB6A03F04C
S32D0000E2180043012B0CBF01230023DBB2002B03D0FB7B0133FB73F0E70E4BDB6A0D4A43F00043D3620B4AFB7974
S32D0000E24053630A4BDB6A03F40033002B0CBF01230023DBB2002B00D0F3E7044B9B6BBB73BB7B18461437BD4632
S32D0000E26880BC704700C00A4080B582B000AF204B03F580531B6B1E4A43F4805302F5805213631C4B4FF480726C
S32D0000E2901A651B4B5B691A4A43F480135361FFF7A3FF164B4FF400725A65144B4FF400729A65124B4FF4007243
S32D0000E2B8DA65124B124A1A60104B124ADA6000237B607B68092B06DCFF20FFF72FFF7B6801337B60F5E704A128
S32D0000E2E0D1E9000101F0BAFC00BF0837BD4680BD9A9999999999B93F0070044000A0044040F00F4000C00A40C0
S32D0000E308000C00800500003E90B486B000AFF860B9607A60FB68534A93420AD1524B03F580535B6B504A43F4F5
S32D0000E330806302F58052536345E0FB684D4A93420AD14B4B03F580535B6B494A43F4006302F58052536336E0A5
S32D0000E358FB68474A93420AD1434B03F580535B6B414A43F4805302F58052536327E0FB68404A93420AD13C4B95
S32D0000E38003F580535B6B3A4A43F4005302F58052536318E0FB683A4A93420AD1344B03F580539B6A324A43F4C0
S32D0000E3A8806302F58052936209E02F4B03F580539B6A2D4A43F4006302F580529362FB68DB78DBB223F00C033F
S32D0000E3D0DAB2FB68DA70FB6800229A70BB684FF47A7203FB02F27B681B0192FBF3F39CB2FB681B78DBB223F0BD
S32D0000E3F81F03FB75230A9BB2DBB203F01F03DAB2FB7D1343DAB2FB681A70E2B2FB685A70BB684FF4FA4203FB15
S32D0000E42002F27B681B0192FBF3F39AB263019BB2D31A9CB2FB689B7ADBB223F01F03FB75E3B203F01F03DAB250
S32D0000E448FB7D1343DAB2FB689A72FB68DB78DBB243F00C03DAB2FB68DA7000BF1837BD4690BC704700A0064025
S32D0000E4700070044000B0064000C0064000D0064000A00E4080B483B000AF78607B681B79DBB203F02003002B97
S32D0000E4980CBF01230023DBB2002B00D0F2E77B68DB79DBB218460C37BD4680BC704780B483B000AF78600B4649
S32D0000E4C0FB707B681B79DBB25BB2DB43DBB2DB09DBB2002B00D0F4E77B68FA78DA7100BF0C37BD4680BC704728
S32D0000E4E880B487B000AFF860B9607A60FB687B617B685A1E7A60002B14BF01230023DBB2002B06D07B695A1C00
S32D0000E5107A61BA68D2B21A70EEE700BF1C37BD4680BC704780B584B000AF786039607B681B6BFB60FA683B68A3
S32D0000E5389A4252D07B681B79002B35D07B6858787B6803F134010123FA6801F0F7F80346002B14BF012300235D
S32D0000E560DBB2002B01D001233CE07B6800221A717B685A6A7B681B6A1344FA689A4217D27B68DB78FB72FB7A8F
S32D0000E588012B11D97B681B6AFA681344FB607B6858787B6803F134010123FA6801F0CEF8FB7A013BFB72EAE7E8
S32D0000E5B03B68002B15D07B6858787B6803F1340101233A6800F0DAFF0346002B14BF01230023DBB2002B01D025
S32D0000E5D8012303E07B683A681A63002318461037BD4680BD80B584B000AF786000217868FFF794FF0346FB73D3
S32D0000E600FB7B002B40F093807B681B78032B7DD17B685B79002B79D07B6800221A637B6834334FF40072002149
S32D0000E6281846FFF75DFF7B68552283F832227B68AA2283F833227B68522283F834207B68522283F835207B683C
S32D0000E650612283F836207B68412283F837207B68722283F818227B68722283F819227B68412283F81A227B68F7
S32D0000E678612283F81B227B681B69DAB27B6883F81C227B681B699BB21B0A9BB2DAB27B6883F81D227B681B69F4
S32D0000E6A01B0CDAB27B6883F81E227B681B691B0EDAB27B6883F81F227B68DB68DAB27B6883F820227B68DB68C8
S32D0000E6C89BB21B0A9BB2DAB27B6883F821227B68DB681B0CDAB27B6883F822227B68DB681B0EDAB27B6883F884
S32D0000E6F023227B6858787B6803F134017B685A69012301F01FF87B6800225A717B685B7800220021184601F00E
S32D0000E718E1F80346002B14BF01230023DBB2002B01D00123FB73FB7B18461037BD4680BD80B582B000AF786008
S32D0000E7400B467B807B68002B08D07B681B78002B04D07B68DB887A889A4201D0092311E07B685B78184601F0ED
S32D0000E7683BF9034603F00103002B14BF01230023DBB2002B01D0032300E0002318460837BD4680BD80B586B0D0
S32D0000E79000AF78607B681A687B689B8819461046FFF7CAFF0346FB75FB7D002B40F0AC807B689B7903F0200330
S32D0000E7B8002B00F0A5807B689B7903F04003002B1BD07B681B6858787B6803F128017B689A69012300F0B2FFCF
S32D0000E7E00346002B14BF01230023DBB2002B01D001238AE07B689B7923F04003DAB27B689A717B681A687B6857
S32D0000E808DB6919461046FFF789FE0346FB75FB7D002B75D17B681B6A3B613B690B331A783B690B3342F020021C
S32D0000E830D2B21A707B68DA683B691C33D2B21A707B68DB689BB21B0A9AB23B691D33D2B21A707B68DB681A0C54
S32D0000E8583B691E33D2B21A707B68DB681A0E3B691F33D2B21A707B681A693B691A33D2B21A707B681B699BB224
S32D0000E8801B0A9AB23B691B33D2B21A707B681B691A0C3B691433D2B21A707B681B691B0C9BB21B0A9AB23B6983
S32D0000E8A81533D2B21A700023FB603B691633FA68D2B21A70FB689BB21B0A9AB23B691733D2B21A70FB681A0C6B
S32D0000E8D03B691833D2B21A70FB681A0E3B691933D2B21A707B689B7923F02003DAB27B689A717B681B68012264
S32D0000E8F81A717B681B681846FFF774FE0346FB75FB7D18461837BD4680BD80B584B000AF78607868FFF736FF22
S32D0000E9200346FB73FB7B002B02D17B6800221A60FB7B18461037BD4680BD000080B588B000AF78603960802394
S32D0000E9483B610F23FB604FF0FF337B610223FB61FB69B3F5807F23D80123BB61BB69102B1AD8FB69BA6902FB8F
S32D0000E97003F33A6803FB02F27B68D31ABB60BB68002B09DBBB687A699A4205D9BB687B61FB693B61BB69FB6094
S32D0000E998BB690133BB61E1E7FB695B00FB61D7E71D4BDB6A1C4A23F00803D3621A4BDB6A23F47F2323F47F637A
S32D0000E9C0BB613B695B081B029AB2FB68013B1B01DBB21A43BB691343114A43F46023D3620F4B5B6A03F0080317
S32D0000E9E8002B0CBF01230023DBB2002B03D00A2001F01AF9F0E7084BDB6A074A43F00803D362054B1B6B044AB4
S32D0000EA1043F48013136300BF2037BD4680BD00BF00100B4080B582B000AF786039607B6800221A60414B424A0A
S32D0000EA38DA62404BDB6A03F08073002B14BF01230023DBB2002B00D0F3E73A4B0022C3F8C020384B4FF481325C
S32D0000EA605A60364B28229A62344B4FF001125A643B689B6833491846FFF760FF2F4B5B6A03F00303002B14BF6D
S32D0000EA8801230023DBB2002B00D0F3E72C4B40F243421A602A4B40F243425A60284B4FF488629A60264B40F2EC
S32D0000EAB04342DA60244B40F243421A61224B40F243425A61214B03F580531B6B1F4A43F4003302F5805213632A
S32D0000EAD8184B4FF6FF721A63164B1B4A5A63154BDB6A144A43F00063D362124BDB6A03F00063002B14BF01230F
S32D0000EB000023DBB2002B00D0F3E70C4B5B6A03F48033002B14BF01230023DBB2002B02D07B6801221A60054BFD
S32D0000EB281B6B044A43F080031363002318460837BD4680BD00100B400080000160CC050000D0044000700440EA
S32D0000EB50B3007F0080B400AF064B5A6A40F207331340002B14BF01230023DBB21846BD4680BC704700100B402D
S32D0000EB7880B485B000AF7860074B1B6B7A681340FB60FB68002B00D1F6E7FB6818461437BD4680BC704700BF1A
S32D0000EBA000100B4080B584B000AF78607B681B7803F03F03764A52F82330FB60FB68002B05D17B681B78002B94
S32D0000EBC801D00123DCE0714B1B6B704A43F0800313636E4B5B6A03F00103002B14BF01230023DBB2002B00D004
S32D0000EBF0F3E7684A7B685B689360FB6823F44003FB607B685B789B0503F44003FA681343FB607B685B78022B34
S32D0000EC1803D1FB6843F40013FB607B685B78042B16D1FB6803F44033B3F5003F08D1FB6823F44033FB60FB68EE
S32D0000EC4043F44033FB6007E0FB6823F44033FB60FB6843F40033FB604E4B5B684D4A9BB253607B68DB68002B06
S32D0000EC682AD0FB6803F44033B3F5403F03D0FB6843F40013FB607B681B7A002B03D0FB6843F01003FB607B6858
S32D0000EC90DB68012B03D9FB6843F02003FB607B68DB68B3F1FF3F0BD03A4B5A687B68DB681B04384913434B6006
S32D0000ECB8FB6843F00203FB60344B00221A60334AFB68D3603248FFF753FF0346012B14BF01230023DBB2002B01
S32D0000ECE009D02C4B1B6B2B4A43F4702343F001031363012348E0274B1B6B03F08003002B14BF01230023DBB2B8
S32D0000ED08002B07D0214B1B6B204A43F001131363012335E01D4B1B6B03F48033002B14BF01230023DBB2002BF4
S32D0000ED3008D0184B1B6B174A43F0011313634FF0FF3321E0FB6803F44033002B15D0114B1A697B681A61FB68E7
S32D0000ED5803F44033B3F5803F0BD10C4B5A697B685A610A4B9A697B689A61084BDA697B68DA61064B1B6B054A18
S32D0000ED8043F001031363002318461037BD4680BDC0B5010000100B4001000E0080B592B000AF78603960002316
S32D0000EDA87B643B68BB63994B7B637B6B002B02D140F601235FE3964B3B633B6B002B02D140F60B2357E33B6BF4
S32D0000EDD01B68FB62FB6A002B02D140F60B234EE37B6841F20932934200F23F837B68B3F5985F08D87B68032BF0
S32D0000EDF800F01A837B68092B00F0098331E37B68A3F59853013B082B00F22B8301A252F823F000BF41EE000056
S32D0000EE202DF1000089F3000043F1000081F10000A7F20000EFF2000031F200004BF200007649786BFFF7EEFD27
S32D0000EE4878647B6C002B40F01083002387F84330002387F82B30002387F82A30002387F82930002387F84230CE
S32D0000EE70002387F8283000233B7200237B720023FB6000233B7400237B6107F108031846FFF788FE0346002BFA
S32D0000EE9814BF01230023DBB2002B02D001237B64E8E240F24C4000F0BFFE08233B7200237B724FF4D573FB60A2
S32D0000EEC000233B7400237B6107F108031846FFF769FEF863FB6B002B09D1BA69FB689A4202D001237B64C9E2ED
S32D0000EEE8012387F84230012387F8283097F82830002B00F0A58037233B7200237B720023FB6000233B7400233B
S32D0000EF107B6107F108031846FFF744FEF863FB6B002B02D001237B64A8E269233B7200237B720023FB60002329
S32D0000EF383B7400237B6107F108031846FFF72EFE0346002B14BF01230023DBB2002B02D001237B648EE2BB69CB
S32D0000EF6003F44013002B6FD00023FB630A2000F05FFEFB6B0133FB6337233B7200237B720023FB6000233B7478
S32D0000EF8800237B6107F108031846FFF707FE0346002B14BF01230023DBB2002B02D001237B6428E069233B72A4
S32D0000EFB000237B7297F84230002B02D0184BFB6002E04FF44013FB6000233B7400237B6107F108031846FFF76C
S32D0000EFD8E5FD0346002B14BF01230023DBB2002B02D001237B6406E0BB69002B03DBFB6B632B00D8B6E77B6CAB
S32D0000F000002B40F03882FB6B632B0BD9002387F8423019E03C17002040190020B4B5010000003040012387F87F
S32D0000F028433097F84230002B0AD0002387F84230BB6903F08043002B02D0012387F8423097F82A30002B02D05B
S32D0000F0507B6B07221A6097F82930002B02D07B6B08221A6097F82B30002B02D07B6B04221A6097F84330002B00
S32D0000F07809D07B6B02221A6097F84230002B02D07B6B03221A6097F82B30002B0DD097F84330002B09D07B6BAC
S32D0000F0A005221A6097F84230002B02D07B6B06221A60924B00221A60904B00225A608F4B00229A608D4B0022FB
S32D0000F0C8DA608C4B00221A618A4B00225A61FB6A9A68FB6A5B6819461046FFF72BFC854B40F243421A60834B8A
S32D0000F0F040F243425A60814B4FF488629A607F4B40F24342DA607D4B40F243421A617B4B40F243425A617A4BDC
S32D0000F11803F580531B6B784A43F4003302F580521363A7E1B86BFFF739FDF863FB6B002B00F09F8102237B6436
S32D0000F1409BE1BB6B002B02D10C237B6496E16D4BDB6A1B0A5B0003F4FF73FB63694BDB6A1B0903F00F035A1CA0
S32D0000F168FB6B02FB03F3FB63FB6A9A68FB6BB2FBF3F2BB6B1A607DE1BB6B002B02D10C237B6477E1BB6B1B6832
S32D0000F190002B02D10C237B6470E1FFF7DBFC0346002B0CBF01230023DBB2002B3CD0534B00221A60514B0022E5
S32D0000F1B85A60504B00229A604E4B0022DA604D4B00221A614B4B00225A61FB6A9A68BB6B1B6819461046FFF760
S32D0000F1E0ADFB464B40F243421A60444B40F243425A60424B4FF488629A60404B40F24342DA603E4B40F2434227
S32D0000F2081A613C4B40F243425A613B4B03F580531B6B394A43F4003302F58052136329E140F60A237B6425E10F
S32D0000F230BB6B002B02D10C237B641FE1314B5B68C3F30C02BB6B1A6018E1BB6B002B02D10C237B6412E1FFF7C7
S32D0000F2587DFC0346002B0CBF01230023DBB2002B19D0BB6B1B68B3F5805F02D30C237B6400E1224B5B68214A59
S32D0000F28023F4FF5323F01F0353601E4B5A68BB6B1B68C3F30C031B4913434B60EEE040F60A237B64EAE0BB6B11
S32D0000F2A8002B02D10C237B64E4E0144B9B6A5B0803F00303FB63FB6B002B03D1BB6B00221A60D7E0FB6B012BDA
S32D0000F2D003D1BB6B01221A60D0E0FB6B102B03D1BB6B02221A60C9E005237B64C6E0BB6B002B09D10C237B6401
S32D0000F2F8C0E000BF00D004400070044000100B40FFF724FC0346002B0CBF01230023DBB2002B31D0BB6B1B6868
S32D0000F320002B0AD1584B9B6A574A23F006039362554B554A9B6A9362A0E0BB6B1B68012B0CD1514B9B6A504AB9
S32D0000F34823F0060393624E4B9B6A4D4A43F0020393628FE0BB6B1B68022B0AD1484B9B6A474A23F006039362CA
S32D0000F370454B454A9B6A936280E005237B647DE040F60A237B6479E0BB6B002B02D10C237B6473E03C4BDB6AA6
S32D0000F3983B4A43F00063D362394BDB6A03F00063002B14BF01230023DBB2002B00D0F3E7334B1B6B03F08003B7
S32D0000F3C0002B14BF01230023DBB2002B08D02E4B1B6B2D4A43F0800313637B6B00221A60294B5B6A03F4803343
S32D0000F3E8002B14BF01230023DBB2002B07D07B6B1B68002B06D17B6B01221A6002E07B6B00221A607B6B1A6869
S32D0000F410BB6B1A6032E0BB6B1C221A60BB6B043304221A60BB6B08334FF41E721A6025E00220FFF7A1FB144B7B
S32D0000F4381B6B03F4E003002B14BF01230023DBB2002B07D00E4B1B6B0D4A43F4E003136304237B640A4B1B6BCB
S32D0000F460094A43F03203136308E040F609237B6404E000BF02E000BF00E000BF7B6C18464837BD4680BD00BF7E
S32D0000F48800100B4080B489B000AF786039607B687B61364B3B613B69002B01D100235FE03B691B68022B0BD060
S32D0000F4B03B691B68032B07D03B691B68072B03D03B691B68082B0BD12B4B5B6A03F00403002B14BF0123002326
S32D0000F4D8DBB2002B00D0F3E73B68FB61FB69002B3DD0FB69B3F5007F28BF4FF40073FB60FB6803339B08BB612E
S32D0000F500BB69002B2AD01C4B1B6B03F4E003002B14BF01230023DBB2002B09D0164B1B6B154A43F4E00343F064
S32D0000F5282003136300231BE0114B5B6A03F40063002B0CBF01230023DBB2002B00D0F3E70B497B691A1D7A619A
S32D0000F5500A6A1A60BB69013BBB61D1E7FA69FB68D31AFB61BEE7012318462437BD4680BC704700BF3C170020B2
S32D0000F57800100B4080B58EB000AFB9607A601A460346FB731346BB73414B7B63FB7B002B02D1BB7B002B01D146
S32D0000F5A0042375E03D4B1B78DBB203F00103002B14BF01230023DBB2002B01D0032367E0BB68002B01D10023A4
S32D0000F5C862E07B6B1B7B002B02D17B685B027B60BB7B012B28D111233B7500237B757B68BB6101233B77BB7BE1
S32D0000F5F03B6207F11403194641F20230FFF7CEFB0346002B0CBF01230023DBB2002B38D04FF40071B868FFF7AE
S32D0000F61839FF0346002B14BF01230023DBB2002B2BD00023BB7328E012233B7500237B757B68BB6101233B7725
S32D0000F640BB7B3B6207F11403194641F20230FFF7A5FB0346002B0CBF01230023DBB2002B0FD0BB7B5B02194651
S32D0000F668B868FFF70FFF0346002B14BF01230023DBB2002B01D00023BB73BB7B002B01D0012300E0002300BFD0
S32D0000F69018463837BD4680BD281700200000002080B487B000AF786039607B68FB603B687B617B69002B3DD05C
S32D0000F6B87B69B3F5007F28BF4FF400733B617A693B69D31A7B613B6903339B083B613B69002BEAD0184B1B6B05
S32D0000F6E003F4E003002B14BF01230023DBB2002B0AD0134B1B6B124A43F4E00343F0100313634FF0FF3316E0CE
S32D0000F7080D4B5B6A03F48063002B0CBF01230023DBB2002B00D0F3E7FB681A1DFA60064A1B6813623B69013B21
S32D0000F7303B61D0E7012318461C37BD4680BC704700100B4080B58EB000AFB9607A601A460346FB731346BB737F
S32D0000F7585D4B7B63FB7B002B02D1BB7B002B01D10423ADE0594B1B78DBB203F00103002B14BF01230023DBB215
S32D0000F780002B01D003239FE0524B1B78DBB203F00403002B14BF01230023DBB2002B01D0022391E0BB68002B51
S32D0000F7A801D100238CE07B6B1B7B002B02D17B685B027B60BB7B012B28D118233B7500237B757B68BB610023C2
S32D0000F7D03B77BB7B3B6207F11403194641F20230FFF7DCFA0346002B0CBF01230023DBB2002B38D04FF40071ED
S32D0000F7F8B868FFF751FF0346002B14BF01230023DBB2002B2BD00023BB7328E019233B7500237B757B68BB61E5
S32D0000F82000233B77BB7B3B6207F11403194641F20230FFF7B3FA0346002B0CBF01230023DBB2002B0FD0BB7B49
S32D0000F8485B021946B868FFF727FF0346002B14BF01230023DBB2002B01D00023BB730D233B7500237B757B6B59
S32D0000F8701B69BB6100233B7700233B6207F11403194641F20230FFF789FA0346002B14BF01230023DBB2002BA3
S32D0000F89801D0012314E07A6A0D4B1340002B01D001230DE07B6A03F4F853B3F5106F00D0D5E7BB7B002B01D0B1
S32D0000F8C0012300E0002300BF18463837BD4680BD28170020000000200880D9FF80B58CB000AF03463A60FB71D9
S32D0000F8E80B46BB713A4BBB62FB79002B01D0042369E0012387F82F30364B1B78DBB203F00103002B14BF012337
S32D0000F9100023DBB2002B01D0032358E0BB79032B50D801A252F823F039F9000041F9000051F9000061F9000025
S32D0000F938002387F82F3044E0BB6A9A683B681A60002387F82F303CE03B684FF400721A80002387F82F3034E014
S32D0000F96009233B7200237B72BB6A1B69FB6000233B7400237B6107F10803194641F20230FFF70CFA0346002B84
S32D0000F98814BF01230023DBB2002B01D001231AE07B6A03F44003002B0CD13B6A9B0C03F07F035A1C7B6A1B0A28
S32D0000F9B003F00303013B9A403B681A60002387F82F3002E0042387F82F3097F82F3018463037BD4680BD00BF63
S32D0000F9D8281700200000002080B483B000AF0346FB71FB79002B01D0012302E0034B1B78DBB218460C37BD462F
S32D0000FA0080BC70470000002080B483B000AF7860164B03F580539B6B144A43F0010302F580529363124A7B6812
S32D0000FA289360114B05225A600F4B1B680E4A43F0010313600C4B1B6803F08003002B0CBF01230023DBB2002B5C
S32D0000FA5000D0F3E7064B1B68054A23F00103136000BF0C37BD4680BC704700BF007004400000044080B582B01B
S32D0000FA7800AF786039607B68012B07D13B684FF6FF72934202D1034800F00EF800BF0837BD4680BD4819002058
S32D0000FAA080B500AF4FF6FF710120FFF7E3FF80BD80B483B000AF78607B6800221A707B6818460C37BD4680BC29
S32D0000FAC87047000080B582B000AF78607B681B7883F00103DBB2002B21D0134B03F580531A464FF400639362B1
S32D0000FAF0104B4FF440721A620E4B4FF440725A620D4B1B68DA0F13445B104FF4614219460A48FEF7FDFB642084
S32D0000FB1800F08AF87B6801221A70012300E0002318460837BD4680BD0070044000D004404C19002000B00E406E
S32D0000FB4080B582B000AF7860084611461A460346FB700B46BB7013467B707F210E48FEF7AAFC08210C48FEF72D
S32D0000FB68A6FCFB7819460A48FEF7A1FCBB7819460748FEF79CFC7B7819460548FEF797FCFF210348FEF793FC93
S32D0000FB9000BF0837BD4680BD00B00E4080B487B000AFF860B9607A60FB681F4AA2FB03239B09BA6813447B611E
S32D0000FBB8FB681B4AA2FB031292094FF47A7101FB02F29B1AFB60FB68DB03154AA2FB03239B097A6813443B6100
S32D0000FBE03B69DB0B7A6913447B613B69C3F30E033B610E4B1B687A699A4209D80B4B1B687A699A4206D1094B11
S32D0000FC085B683A699A4201D9012300E00023002B00D0EAE700BF1C37BD4680BC704700BFD34D621000D0034053
S32D0000FC3080B584B000AF7860074B1B68FB60064B5B68BB607B68BA68F9681846FFF7A6FF00BF1037BD4680BDB2
S32D0000FC5800D0034080B584B000AFC7E900010E4B1B68FB600C4B5B68BB604FF000020B4BD7E9000104F012FBDD
S32D0000FC8002460B461046194604F0CEFD0346BA68F9681846FFF782FF00BF1037BD4680BD00D0034000408F4040
S32D0000FCA880B584B000AF134B1B68FB60114B5B68BB60F86804F078FA02460B46C7E90023B86804F071FA4FF0B0
S32D0000FCD000020B4B04F010FC02460B46D7E9000104F02AF902460B46C7E90023D7E90023104619461037BD46EF
S32D0000FCF880BD00BF00D003400000E04080B483B000AF0B4B1B684FF47A7202FB03F37B60074B5B684FF47A727F
S32D0000FD2002FB03F3DB0B7A6813447B607B6818460C37BD4680BC704700D0034080B584B000AF78600B46FB708F
S32D0000FD480B23FB73FA7BFB781946786800F094F87B6818461037BD4680BD000080B485B000AF78607B68103B68
S32D0000FD70002B00DA1F335B11FB60FB68022B53D0FB68022B75DCFB68002B03D0FB68012B25D06EE0394BD3F831
S32D0000FD9880217B68103B594203F01F0301F01F0158BF4B42012101FA03F332491343C1F88031304B1A687B68DB
S32D0000FDC0103B594203F01F0301F01F0158BF4B42012101FA03F3294913430B6049E0274BD3F884217B68103BE6
S32D0000FDE8594203F01F0301F01F0158BF4B42012101FA03F31F491343C1F884311D4B5A687B68103B594203F063
S32D0000FE101F0301F01F0158BF4B42012101FA03F3164913434B6024E0144BD3F888217B68103B594203F01F03C5
S32D0000FE3801F01F0158BF4B42012101FA03F30D491343C1F888310B4B9A687B68103B594203F01F0301F01F016F
S32D0000FE6058BF4B42012101FA03F3044913438B6000BF00BF1437BD4680BC704700E100E080B584B000AF7860BF
S32D0000FE880B46FB701346BB707B68FA781A70BB78FB737B681B781A46574B9B5C042B00F2A68001A252F823F0D6
S32D0000FEB0C5FE000011FF00005DFF0000F5FF0000A9FF0000FB7B1B0403F470234D497A68127810464C4A52F802
S32D0000FED8202043F4897343F0010341F82230494B5A697B681B781946454B53F8213003F01F03012101FA03F347
S32D0000FF00DB43424913404B616720FFF72BFF72E0FB7B1B0403F470233D497A6812781046394A52F8202043F487
S32D0000FF28897343F0010341F82230384B5A697B681B781946324B53F8213003F01F03012101FA03F3DB433149F9
S32D0000FF5013404B616820FFF705FF4CE0FB7B1B0403F470232C497A6812781046264A52F8202043F4897343F020
S32D0000FF78010341F82230274B5A697B681B7819461F4B53F8213003F01F03012101FA03F3DB43204913404B610E
S32D0000FFA06920FFF7DFFE26E0FB7B1B0403F470231B497A6812781046134A52F8202043F4897343F0010341F802
S32D0000FFC82230164B5A697B681B7819460C4B53F8213003F01F03012101FA03F3DB430F4913404B616B20FFF7AF
S32D0000FFF0B9FE00E000BF00BF1037BD4680BD00BFC0B601000090044004B7010000F00F4000A0044040F00F40DF
S32D0001001800B0044080F00F4000D0044000F10F40B0B48BB000AF224B3C1D1D460FCD0FC495E80F0084E80F0085
S32D0001004000237B627B6A072B30DC1C4BD3F8A0207B6A9B0028333B4453F8243C012101FA03F31340002B14BF13
S32D0001006801230023DBB2002B18D0134A7B6A52F823305A1C10497B6A41F823200D4BD3F8A0207B6A9B002833B5
S32D000100903B4453F8243C012101FA03F307491340C1F8A0307B6A01337B62CBE700BF2C37BD46B0BC704700BF29
S32D000100B808B8010000A0044078190020B0B489B000AF224B3C1D1D460FCD0FC495E8030084E803000023FB6131
S32D000100E0FB69052B30DC1C4BD3F8A020FB699B0020333B4453F81C3C012101FA03F31340002B14BF0123002340
S32D00010108DBB2002B18D0FB690833124A52F823200132104941F823200D4BD3F8A020FB699B0020333B4453F899
S32D000101301C3C012101FA03F307491340C1F8A030FB690133FB61CBE700BF2437BD46B0BC704700BF28B8010083
S32D0001015800B0044078190020B0B48DB000AF234B3C461D460FCD0FC40FCD0FC495E8070084E807000023FB625B
S32D00010180FB6A0A2B30DC1C4BD3F8A020FB6A9B0030333B4453F8303C012101FA03F31340002B14BF0123002374
S32D000101A8DBB2002B18D0FB6A0E33124A52F823200132104941F823200D4BD3F8A020FB6A9B0030333B4453F8E1
S32D000101D0303C012101FA03F307491340C1F8A030FB6A0133FB62CBE700BF3437BD46B0BC704700BF40B80100A5
S32D000101F80090044078190020B0B487B000AF214B3C461D460FCD0FC42B68236000237B617B69042B30DC1C4B6E
S32D00010220D3F8A0207B699B0018333B4453F8183C012101FA03F31340002B14BF01230023DBB2002B18D07B690D
S32D000102481933124A52F823200132104941F823200D4BD3F8A0207B699B0018333B4453F8183C012101FA03F36C
S32D0001027007491340C1F8A0307B6901337B61CBE700BF1C37BD46B0BC704700BF6CB8010000D0044078190020AC
S32D0001029880B483B000AF78607B681B781A46044B53F8223018460C37BD4680BC704700BF7819002080B483B019
S32D000102C000AF78607B681B781946044B002243F8212000BF0C37BD4680BC70477819002080B483B000AF78602F
S32D000102E80B46FB707B68FA781A707B6818460C37BD4680BC7047000080B586B000AF78607B681B781A463E4B81
S32D0001031053F822303B617B681B781A463B4B9B5CFB733B69DBB203F01F03DAB2384B1A723B69DBB203F01F039D
S32D00010338DAB2354B5A72354B1022C3F88820FB7B002B13D13049324800F05AFA304B1B6803F08003802B14BFFB
S32D0001036001230023DBB2002B00D0F3E72A4B1B697B6112E02649294800F046FA274B1B6803F08003802B14BF05
S32D0001038801230023DBB2002B00D0F3E7214B1B697B611E4BD3F888311C4A43F01003C2F888311A4B9B68194AFA
S32D000103B043F0100393607B699BB2184603F0F8FE0DA3D3E9002303F06DFF02460B46104619460BA3D3E90023A4
S32D000103D804F08EF802460B461046194604F040FA0346BB60BB6818461837BD4680BD00BFA4703D0AD7A30A40AE
S32D0001040000000000E0FFEF4084B70100E0B601005819002000E100E000B0034000B00B4080B586B000AF7860BA
S32D000104287B681B781A46234B53F822303B617B681B781A46204B9B5CFB733B69DBB203F01F03DAB21D4B1A72BC
S32D000104503B69DBB203F01F03DAB21A4B5A72FB7B002B13D11749184800F0CEF9164B1B6803F08003802B14BFA6
S32D0001047801230023DBB2002B00D0F3E7104B1B697B6112E00D490F4800F0BAF90D4B1B6803F08003802B14BFE0
S32D000104A001230023DBB2002B00D0F3E7074B1B697B617B6918461837BD4680BD84B70100E0B60100681900208D
S32D000104C800B0034000B00B4098B500AF204B5C221A701F4B10225A701D4B41F234225A801B4B45F278629A80E6
S32D000104F0194B10229A71184B0722DA71164B4FF4C022DA60144B1F221A72134B1F225A721149124800F078F9F9
S32D000105180F49114800F074F90F4800F0D2F80D4800F0CFF80A490C4800F06AF90849094800F066F9094A064BFA
S32D0001054014460FCB84E80F00064B5C221A70054B0422DA7100BF98BD5819002000B0034000B00B40681900208F
S32D0001056880B500AF064B1B680133054A136000F03DF8044B0122C3F80C2100BF80BD00BFFC1900200070034094
S32D0001059080B500AF0C4B01221A600C4800F01AF8094B0322C3F80821094BD3F88831084A43F01003C2F88831CE
S32D000105B8054B9B68044A43F01003936000BF80BD00700340A086010000E100E080B483B000AF7860044A7B6884
S32D000105E0C2F8003100BF0C37BD4680BC704700BF0070034080B584B000AF174B1B68FB60FB68002B24D0FB685A
S32D000106085B78FB71FB689B68184600F023F80346BB71BB79002B13D0FB685B68012B0FDDFB689B681B69BB60BB
S32D00010630BB68002B08D0BB685B685A1CBB685A60BB681B69BB60F3E7FB68DB68FB60D7E700BF1037BD4680BD9B
S32D00010658F819002080B584B000AF78607868FFF7DBFEF8607B689B695B78FB72FB7A002B0FD17B68DB68FA681C
S32D000106809A420ADD7B689B6901225A707B685B685A1C7B685A60012313E0FB7A012B0FD17B689B68FA689A423F
S32D000106A80ADA7B689B6900225A707B685B685A1C7B685A60012300E0002318461037BD4680BD80B485B000AF8F
S32D000106D078607B681B6A23F040027B681A627B685B6A23F00B027B685A627B685B6A43F007027B685A627B683A
S32D000106F85B6A43F080027B685A627B681B6803F08003002B0CBF01230023DBB2002B00D0F3E77B685B6A03F0A4
S32D000107204003402B0CBF01230023DBB2002B01D0012364E00023FB817B68DB6CFB817B689B6C9AB2FB891344A3
S32D00010748FB817B685B6C9AB2FB891344FB817B681B6C9AB2FB891344FB817B68DB6B9AB2FB891344FB817B68FD
S32D000107709B6B9AB2FB891344FB81FB895B08FB81FB896FEA43436FEA5343FB81FA897B68DA620023FB817B685C
S32D00010798DB6EFB817B689B6E9AB2FB891344FB817B685B6E9AB2FB891344FB817B681B6E9AB2FB891344FB8180
S32D000107C07B68DB6D9AB2FB891344FB817B689B6D9AB2FB891344FB81FB895B08FB81FB896FEA43436FEA5343F9
S32D000107E8FB81FA897B681A637B685B6A23F080027B685A62002318461437BD4680BC704780B483B000AF7860F7
S32D0001081039603B681B781A467B689A603B685B781A467B68DA603B685B881A467B689A613B689B881A467B68ED
S32D00010838DA613B689B791A467B681A623B68DB791A467B685A623B68DA687B681A653B681B7A1A467B681A60AE
S32D000108603B685B7A1A467B685A6000BF0C37BD4680BC704780B483B000AF78607B6818460C37BD4680BC704794
S32D0001088880B582B000AF786039607B68012B07D13B684FF6FF72934202D10348FFF7E6FF00BF0837BD4680BD6E
S32D000108B0001A002080B500AF4FF6FF710120FFF7E3FF80BD80B483B000AF78600B46FB707B68FA781A707B68A4
S32D000108D84FF4FA725A807B6840F6C4129A807B68034A9A607B6818460C37BD4680BC7047000080BF80B483B015
S32D0001090000AF786039603B68B3F5FA7F04DB3B6840F6C412934204DD7B684FF4FA725A8004E03B689AB27B687E
S32D000109285A8000BF00BF0C37BD4680BC704780B483B000AF786039603B68B3F5FA7F04DB3B6840F6C412934261
S32D0001095004DD7B6840F6C4129A8004E03B689AB27B689A8000BF00BF0C37BD4680BC70472DE9904385B000AF3A
S32D00010978786039604FF00001386804F06DFA0346002B02D04FF000033B603249386804F081FA0346002B01D0B2
S32D000109A02E4B3B607B689B681946386804F04EFA0346002B00D04BE07B683A689A607B685C887B689B881A46D8
S32D000109C87B685B88D31A184603F0FEFB4FF00002214B03F08DFD02460B4690469946386803F004FC02460B465F
S32D000109F04046494603F056FC02460B461046194603F012FF03469BB22344FB81FB897B73FB891B0A9BB23B739D
S32D00010A187F211248FDF74BFD05211048FDF747FD7B681B7819460D48FDF741FD3B7B19460A48FDF73CFD7B7BDD
S32D00010A4019460848FDF737FDFF210648FDF733FD00BF1437BD46BDE8908300BF000034430080664000B00E40FF
S32D00010A6880B582B000AF7860B84B4FF48072DA60B74B4FF480729A64B54B4FF480721A64B34B4FF480725A6426
S32D00010A90B14B4FF48072DA60B04B5B69AF4A43F008035361AE4B5B69AD4A43F480235361AB4B5B69AA4A43F4FB
S32D00010AB880335361A84B5B69A74A43F400335361A54B1B68A44A43F008031360A24B5B69A14A43F00803536142
S32D00010AE09E4B1B689D4A43F0080313609A4B4FF480725A62984B4FF480721A62954B4FF480721A61934B4FF4C8
S32D00010B0880725A61914B4FF480729A618F4B4FF48072DA618D4B4FF480721A638B4B4FF480725A63894B4FF452
S32D00010B3080729A63874B4FF48072DA63854B4FF480721A64834B4FF480725A64814B4FF480729A647F4B4FF413
S32D00010B588072DA64814B4FF480721A607F4B4FF480729A607D4B4FF48072DA607B4B4FF480721A61784B5B6996
S32D00010B80774A43F440735361744B5B69734A43F47F2343F0F0035361734B5B69724A43F01D035361E2217868CC
S32D00010BA800F0D2FD1D21786800F074FE0221786800F070FE0421786800F06CFEE021786800F0C2FD012178688D
S32D00010BD000F064FE6420FFF72BF8E021786800F0B7FD0321786800F059FE0121786800F0AFFD0120FFF71CF86E
S32D00010BF8E621786800F0A8FD0121786800F04AFEA021786800F046FEFF21786800F042FEB021786800F098FDDD
S32D00010C201C21786800F03AFE0F21786800F036FE0121786800F032FE3F21786800F02EFE0021786800F02AFE95
S32D00010C48EF21786800F026FE0021786800F022FEB421786800F078FD0121786800F01AFE9921786800F016FEA6
S32D00010C700021786800F012FE4521786800F00EFE0221786800F00AFE0021786800F006FE0021786800F002FE31
S32D00010C980021786800F0FEFDB621786800F054FD0121786800F0F6FD0921786800F0F2FD0021786800F0EEFD9F
S32D00010CC00E21786800F0EAFD0221786800F0E6FD0021786800F0E2FD0021786800F0DEFDBA21786800F034FDD1
S32D00010CE80F21786800F0D6FD6420FEF79DFF3A21786800F029FD6021786800F0CBFD2A21786800F021FD002131
S32D00010D10786800F0C3FD0021786800F0BFFD0121786800F0BBFD3F21786800F0B7FD2B21786800F00DFD0021A2
S32D00010D38786800F0AFFD0021786800F0ABFD0021786800F0A7FDEF2178680BE000B0044000A0044080F00F4070
S32D00010D6040F00F4000C00440C0F00F4000F096FD3621786800F0ECFC0021786800F08EFDF021786800F0E4FC13
S32D00010D880421786800F086FDB821786800F0DCFC0F21786800F07EFD0121786800F07AFD314B1B68304A43F0B3
S32D00010DB0080313606420FEF73BFF3621786800F0C7FC0021786800F069FDF021786800F0BFFC0421786800F011
S32D00010DD861FD0121786800F0BCF91E226F21786800F082F8AF225621786800F0DBF80021786800F00AFA0123C9
S32D00010E0001221C49786800F02BFA2921786800F09FFC6420FEF70CFFBE21786800F098FC0E21786800F03AFD94
S32D00010E28F021786800F036FD0121786800F032FD0021786800F02EFD0021786800F02AFD0F21786800F026FD0F
S32D00010E50786800F028FA0121786800F0DAF90021786800F0AFF900BF0837BD4680BD00BF40F00F4080B801006E
S32D00010E7880B582B000AF78607B680022DA617B6801221A627B680E225A607B681A229A607B6800225A617B6812
S32D00010EA000229A617B684FF4A072DA607B68F0221A617B6800221A70786801F023FA7B6818460837BD4680BDE7
S32D00010EC880B582B000AF7860064B1B78002B05D1044B01221A707868FFF7C2FD00BF0837BD4680BD481A0020D7
S32D00010EF080B58AB002AFF860B9607A607E23009362237A68B968F86800F0B7FE40F24E733B610023FB61FA6936
S32D00010F183B699A4240DA0023BB61214AFB6913441B781A46BB69934232DAFB6901331C4AD35C002B06D1FF2362
S32D00010F40FB75FF23BB75FF237B7512E0FB690133154AD35C012B06D1D423FB750023BB7526237B7505E0B523E3
S32D00010F68FB75BA23BB75B0237B757B7DBA7DF97DF86800F0C9F80246FB68DA61F86801F0BDF9F86801F0F6F838
S32D00010F90BB690133BB61C4E7FB690233FB61BAE700BF2037BD4680BD0400002080B58AB002AFF860B9607A6098
S32D00010FB82723009395237A68B968F86800F059FE40F2E6333B610023FB61FA693B699A4240DA0023BB61214ABE
S32D00010FE0FB6913441B781A46BB69934232DAFB6901331C4AD35C002B06D1FF23FB75FF23BB75FF237B7512E018
S32D00011008FB690133154AD35C012B06D10023FB750023BB7500237B7505E0D423FB750023BB7526237B757B7DC7
S32D00011030BA7DF97DF86800F06BF80246FB68DA61F86801F05FF9F86801F098F8BB690133BB61C4E7FB69023309
S32D00011058FB61BAE700BF2037BD4680BD5407002080B485B000AF78600B46FB70FB78062B29D801A252F823F04A
S32D00011080A51001009D100100AB100100B3100100BB100100C1100100C91001006FF07F43FB6014E00023FB60F7
S32D000110A811E04FF47F03FB600DE04FF47F43FB6009E0FF23FB6006E04FF41903FB6002E0044BFB6000BFFB6807
S32D000110D018461437BD4680BC704700BF9999990080B584B000AF786039603B681B0CFB733B681B0ABB733B686E
S32D000110F87B737B7BBA7BF97B786800F005F8034618461037BD4680BD80B487B000AF7860084611461A46034601
S32D00011120FB700B46BB7013467B70FB789B08DBB27B61BB789B08DBB23B617B789B08DBB2FB607B691A033B69D4
S32D000111489B011A43FB68134318461C37BD4680BC704780B582B000AF78600B46FB70FB7819467868FFF77CFF52
S32D0001117003461946786800F004F800BF0837BD4680BD80B582B000AF7860396039687868FFF7A6FF02467B68D0
S32D000111981A62786801F0B2F8786800F013FC00BF0837BD4680BD80B582B000AF7860786800F008FC00BF083754
S32D000111C0BD4680BD80B582B000AF78600B46FB70FB7819467868FFF747FF03461946786800F004F800BF0837B6
S32D000111E8BD4680BD80B582B000AF7860396039687868FFF771FF02467B681A62786801F07DF800BF0837BD463C
S32D0001121080BD80B582B000AF78600B46FB70FB7819467868FFF720FF03461946786800F004F800BF0837BD468C
S32D0001123880BD80B582B000AF7860396039687868FFF74AFF02467B68DA61786801F056F800BF0837BD4680BD40
S32D0001126080B586B000AFF860B9607A603B6000237B617B69BA6813441B78002B0FD07B69BA6813441B783A68D4
S32D000112887968F86800F034FE7B680C337B607B6901337B61E9E700BF1837BD4680BD80B582B000AF7860FCF7E4
S32D000112B0DFFF67210120FCF74AFF00210220FCF746FFA0210320FCF742FF50210420FCF73EFF20210520FCF79B
S32D000112D83AFF20210620FCF736FF77210720FCF732FF00210820FCF72EFF00210920FCF72AFF00210A20FCF72F
S32D0001130026FF04210B20FCF722FF7B684FF0FF32DA637B684FF0FF321A6400BF0837BD4680BD00000000000096
S32D0001132880B586B000AFF860B9607A600020FCF72CFF0346FB75FB7D03F00203002B00F0CE80FCF73FFFE02030
S32D00011350FCF7F0FE0220FEF76BFCFCF745FF0120FEF766FCFCF732FFA520FCF7E3FE0120FEF75EFCFCF705FF3C
S32D0001137803469BB21B02BB82FCF7FFFE03469AB2BB8A1343BB82FCF7F8FE03469BB21B027B82FCF7F2FE034634
S32D000113A09AB27B8A13437B82BB8A1B09BB827B8A1B097B82FCF718FFFB68DB6BB3F1FF3F34D1FB681B6CB3F186
S32D000113C8FF3F2FD1BA8AFB68DA637A8AFB681A647B8AC3F57F630F337B82BB8A184602F0F3FE49A3D3E90023C0
S32D000113F002F058FF02460B461046194603F034FA0246BB681A607B8A184602F0E1FE42A3D3E9002302F046FF02
S32D0001141802460B461046194603F022FA02467B681A605AE0FB68DA6BBB8AD31A1946F86800F074F80346632B9D
S32D000114400CDCFB681A6C7B8AD31A1946F86800F069F80346632B01DC012300E00023002B2FD0BA8AFB68DA63C1
S32D000114687A8AFB681A647B8AC3F57F630F337B82BB8A184602F0A8FE23A3D3E9002302F00DFF02460B461046C5
S32D00011490194603F0E9F90246BB681A607B8A184602F096FE1CA3D3E9002302F0FBFE02460B461046194603F061
S32D000114B8D7F902467B681A600FE0BB68164A1A607B68154A1A60FB684FF0FF32DA63FB684FF0FF321A64002364
S32D000114E010E001230EE0BB680D4A1A607B680C4A1A60FB684FF0FF32DA63FB684FF0FF321A6400231846183703
S32D00011508BD4680BDAFF30080144001144001B43F1EE0011EE001AE3F000080BF80B483B000AF786039603B6861
S32D00011530002B02DA3B685B423B603B6818460C37BD4680BC704780B584B000AF786039600023FB60786800F099
S32D00011558FCFAFB683A6813441B78002B12D07B6859697B689869FB683A6813441B780246786800F0A3FC786863
S32D0001158000F0FBFAFB680133FB60E6E700BF1037BD4680BD80B590B000AF7860396007F10C033A680649184667
S32D000115A804F012FD07F10C0319467868FFF7C7FF00BF4037BD4680BD8CB8010080B592B000AF786039604FF07E
S32D000115D00001386803F058FC0346002B1FD0386803F066FC03467B64786C03F047FA03461946386803F08CF9AC
S32D000115F803461F49184603F091FA0346184603F053FC03463B6407F10C003B6C7A6C194904F0DAFC22E03B6804
S32D0001162083F000433B60386803F042FC03467B64786C03F023FA03461946386803F068F903460D49184603F0D1
S32D000116486DFA0346184603F02FFC03463B6407F10C003B6C7A6C084904F0B6FC07F10C0319467868FFF76BFF31
S32D0001167000BF4837BD4680BD00007A449CB8010090B8010080B582B000AF78600B46FB70786800F05EFA7B68BC
S32D0001169859697B689A69FB78786800F00FFC786800F067FA00BF0837BD4680BD80B582B000AF78603960786857
S32D000116C000F047FA39687868FFF73DFF786800F02BFA00BF0837BD4680BD80B582B000AF78603960786800F08D
S32D000116E834FA39687868FFF751FF786800F018FA00BF0837BD4680BD80B582B000AF78603960786800F021FA4C
S32D0001171039687868FFF756FF786800F005FA00BF0837BD4680BD80B582B000AF78600B46FB70786800F00DFA50
S32D00011738FB7819467868FFF7A1FF786800F0F0F900BF0837BD4680BD80B483B000AF78600B46FB704D4B1B687E
S32D000117604C4A23F0080313604B4B1B684A4A23F480231360484B1B68474A43F480331360454B1B68444A23F49D
S32D0001178840731360414B1B68404A23F4435323F0300313603E4B1A68FB785B0203F400733B4913430B603A4BFE
S32D000117B01A68FB785B101B0203F48073364913430B60344B1A68FB789B101B0103F01003304913430B602F4B6E
S32D000117D81A68FB78DB105B0103F020032B4913430B602A4B1A68FB781B119B0103F04003264913430B60254B53
S32D000118001A68FB785B11DB01DBB2224913430B60204B1A68FB789B111B0303F480531D4913430B601B4B1A68C0
S32D0001182897F90330DB115BB25B0303F40053174913430B60164B1B68154A23F400331360134B1B68124A43F498
S32D00011850003313600F4B1B680E4A43F0080313600D4B1B680C4A43F440731360094B1B68084A43F4435343F026
S32D0001187830031360064B1B68054A43F48023136000BF0C37BD4680BC704700BF80F00F4040F00F4080B483B0CF
S32D000118A000AF78600B46FB70464B1B68454A23F008031360444B1B68434A43F480331360414B1B68404A43F4D6
S32D000118C8802313603E4B1B683D4A23F4407313603A4B1B68394A23F4435323F030031360374B1A68FB785B0246
S32D000118F003F40073344913430B60334B1A68FB785B101B0203F480732F4913430B602D4B1A68FB789B101B01CF
S32D0001191803F01003294913430B60284B1A68FB78DB105B0103F02003244913430B60234B1A68FB781B119B0149
S32D0001194003F040031F4913430B601E4B1A68FB785B11DB01DBB21B4913430B60194B1A68FB789B111B0303F4A7
S32D000119688053164913430B60144B1A6897F90330DB115BB25B0303F40053104913430B600F4B1B680E4A23F4B2
S32D00011990003313600C4B1B680B4A43F400331360084B1B68074A43F008031360064B1B68054A23F4802313604E
S32D000119B800BF0C37BD4680BC704700BF80F00F4040F00F4080B586B000AF78607B6800225A617B6800229A6159
S32D000119E07B681B6AFB60FB68FB72FB681B0ABB72FB681B0CDBB203F003037B722A217868FFF7A6FE00217868CD
S32D00011A08FFF748FF00217868FFF744FF01217868FFF740FF3F217868FFF73CFF2B217868FFF792FE00217868DD
S32D00011A30FFF734FF00217868FFF730FF00217868FFF72CFFEF217868FFF728FF2C217868FFF77EFE314B1B686B
S32D00011A58304A23F4407313602F4B1B682E4A23F47F2323F0F00313602C4B1B682B4A23F01D031360274B1A68F8
S32D00011A807B681B6B254913430B60254B1A687B685B6B234913430B60224B1A687B689B6B204913430B601E4B6C
S32D00011AA81B681D4A23F0080313601A4B1B68194A43F48023136000237B617B69EF2B19D800233B613B69B3F503
S32D00011AD0A07F0FD2114B1B68104A23F4003313600E4B1B680D4A43F4003313603B6901333B61EBE77B69013383
S32D00011AF87B61E2E7084B1B68074A43F008031360044B1B68034A23F48023136000BF1837BD4680BD40F00F4029
S32D00011B2080F00F40C0F00F4080B483B000AF78607B689B69002B07DD7B685B695A1C7B685A617B6800229A6139
S32D00011B4800BF0C37BD4680BC704780B582B000AF78607B685A697B685B689A4205DB7B6800225A617868FFF7EA
S32D00011B702DFF00BF0837BD4680BD80B582B000AF78607B689B695A1C7B689A617B689A697B689B689A4205D135
S32D00011B987868FFF7C5FF7868FFF7D7FF00BF0837BD4680BD80B586B002AFF860B9607A600123009301237A6876
S32D00011BC0B968F86800F059F8F86800F0D7FA00BF1037BD4680BD80B485B000AF786039607B681B68FB603B68E0
S32D00011BE81A687B681A603B68FA681A6000BF1437BD4680BC704780B586B002AFF860B9607A603B60BA683B68A9
S32D00011C101A447B68009313467A68B968F86800F0ABF8BA683B68D118BA683B68D0187A68BB69134400930346EE
S32D00011C387A68F86800F09CF8BA683B68D1187A68BB69D0187A68BB6913440093BB680246F86800F08DF87A6809
S32D00011C60BB691A447B680093BB68B968F86800F083F800BF1037BD4680BD80B588B000AFF860B9607A603B6006
S32D00011C88FB681B78022B03D0FB681B78032B11D17B68FB61BA6AFB691344013BBB61FB68DA68BB68D31A3B616A
S32D00011CB03B683A69D31A01337B610DE0BB68FB613A68FB691344013BBB617B687B61BA6A7B691344013B3B61AB
S32D00011CD82A21F868FFF738FDFB691B0ADBB203F00F03DBB21946F868FFF7D4FDFB69DBB21946F868FFF7CEFD68
S32D00011D00BB691B0ADBB203F00F03DBB21946F868FFF7C4FDBB69DBB21946F868FFF7BEFD2B21F868FFF714FD02
S32D00011D287B691B0ADBB203F00F03DBB21946F868FFF7B0FD7B69DBB21946F868FFF7AAFD3B691B0ADBB203F0EC
S32D00011D500F03DBB21946F868FFF7A0FD3B69DBB21946F868FFF79AFD2C21F868FFF7F0FC00BF2037BD4680BD11
S32D00011D7890B58BB000AFF860B9607A603B603A68BB68D31A1946F868FFF7C8FBF861BA6B7B68D31A1946F868F0
S32D00011DA0FFF7C0FBB861BA69FB699A42CCBF01230023FB75FB7D002B0CD03A1D07F1080311461846FFF707FF1B
S32D00011DC83B4607F138011846FFF701FFBA683B689A420CDD3A4607F1080311461846FFF7F6FE3B1D07F13801B1
S32D00011DF01846FFF7F0FE3A68BB689A4206D1BB687A681946F868FFF7D1FE55E0BA6B7B68D31A184602F032FED7
S32D00011E1804463A68BB68D31A184602F02BFE03461946204602F02EFF03463B617B68184602F020FE03467B629D
S32D00011E40BB683B623B683A6A9A4235DCFB7D002B14D0786A02F0CEF94FF00002184B02F06BF802460B46104675
S32D00011E68194602F0B5FC03463A6A1946F868FFF799FE13E0786A02F0B9F94FF000020E4B02F056F802460B4624
S32D00011E901046194602F0A0FC03461A46396AF868FFF784FE3969786A02F034FD03467B623B6A01333B62C5E7CD
S32D00011EB82C37BD4690BD00BF0000E03F80B584B000AFF860B9607A60FB707A6813465B0013449B00991CBA683D
S32D00011EE013461B011344DA1CFB78F86800F004F800BF1037BD4680BD80B58EB002AFF860B9607A60FB70FB78BF
S32D00011F080A2B06D1F868FFF720FEF868FFF708FEF2E0FB787D2B02D8FB781F2B01D82023FB70FB78203BFB708A
S32D00011F30112300930C237A68B968F868FFF79DFEFA7813469B0013446F4AD35C3B75FA7813469B001344013352
S32D00011F586B4AD35C7B75FA7813469B0013440233674AD35CBB75FA7813469B0013440333634AD35CFB75FA78D3
S32D00011F8013469B00134404335F4AD35C3B760023BB62BB6A062B00F3A180F86800F050F9F86800F0B3F80023C6
S32D00011FA887F82F3000237B627B6A042B35DC07F114027B6A13441B7803F00103002B14BF01230023FB76FB7E04
S32D00011FD0002B11D097F82F3083F00103DBB2002B03D0F86800F0CAF802E0F86800F08EF8F86800F08BF80DE05C
S32D00011FF897F82F30002B03D0F86800F01DF902E0F86800F07FF8F86800F07CF8FB7E87F82F307B6A01337B62AE
S32D00012020C6E797F82F30002B03D0F86800F008F902E0F86800F06AF8F86800F067F8002387F82F3000233B62A3
S32D000120483B6A042B42DC07F114023B6A13441B7803F00103002B14BF01230023BB76BB7E002B11D097F82F303A
S32D0001207083F00103DBB2002B03D0F86800F07EF802E0F86800F042F8F86800F03FF80DE097F82F30002B03D0AD
S32D00012098F86800F0D1F802E0F86800F033F8F86800F030F8BB7E87F82F3007F114023B6A13441B785B08D9B289
S32D000120C007F114023B6A13440A461A703B6A01333B62B9E7BB6A0133BB625AE7F86800F0AFF8002387F82F3048
S32D000120E80123FB61FB69232B06DCF86800F00AF8FB690133FB61F5E73037BD4680BD00BF3C0B002080B483B05F
S32D0001211000AF7860174B1B68164A43F480331360154B1B68144A23F008031360114B1B68104A43F4802313601F
S32D000121380E4B1B680D4A23F4003313600B4B1B680A4A43F400331360094B1B68084A43F008031360054B1B68D1
S32D00012160044A23F48023136000BF0C37BD4680BC704700BF40F00F4080F00F4080B483B000AF78602B4B1B68F9
S32D000121882A4A43F480331360294B1B68284A23F008031360254B1B68244A43F480231360224B1B68214A23F43D
S32D000121B040731360204B1B681F4A23F47F2323F0F00313601D4B1B681C4A23F01D031360184B1A687B685B6ACD
S32D000121D8164913430B60164B1A687B689B6A144913430B60134B1A687B68DB6A114913430B600E4B1B680D4A79
S32D0001220023F4003313600B4B1B680A4A43F400331360094B1B68084A43F008031360054B1B68044A23F4802333
S32D00012228136000BF0C37BD4680BC704740F00F4080F00F40C0F00F4080B483B000AF78602B4B1B682A4A43F44D
S32D0001225080331360294B1B68284A23F008031360254B1B68244A43F480231360224B1B68214A23F440731360F9
S32D00012278204B1B681F4A23F47F2323F0F00313601D4B1B681C4A23F01D031360184B1A687B681B6B16491343B4
S32D000122A00B60164B1A687B685B6B144913430B60134B1A687B689B6B114913430B600E4B1B680D4A23F4003399
S32D000122C813600B4B1B680A4A43F400331360094B1B68084A43F008031360054B1B68044A23F48023136000BF83
S32D000122F00C37BD4680BC704740F00F4080F00F40C0F00F4080B485B000AF78607B681B6AFB60FB68FB72FB6863
S32D000123181B0ABB72FB681B0CDBB203F003037B727B6800225A627B6800229A627B680022DA627B6800221A63C2
S32D000123407B6800225A637B6800229A637B681A6BFB7A5B0203F400731A437B681A637B681A6BFB7A5B101B02E4
S32D0001236803F480731A437B681A637B685A6BFB7A9B101B0103F010031A437B685A637B685A6BFB7ADB105B0154
S32D0001239003F020031A437B685A637B685A6BFB7A1B119B0103F040031A437B685A637B685A6BFB7A5B11DB018E
S32D000123B8DBB21A437B685A637B685A6BFB7A9B111B0303F480531A437B685A637B685A6B97F90B30DB115BB252
S32D000123E05B0303F400531A437B685A637B685A6BBB7A9B0303F480431A437B685A637B685A6BBB7A5B10DB03D1
S32D000124089BB21A437B685A637B685A6BBB7A9B101B0403F480331A437B685A637B685A6BBB7ADB105B0403F4EF
S32D0001243000331A437B685A637B685A6BBB7A1B119B0403F480231A437B685A637B685A6BBB7A5B11DB0403F4EF
S32D0001245800231A437B685A637B689A6BBB7A9B1103F001031A437B689A637B689A6B97F90A30DB115BB29B00F2
S32D0001248003F004031A437B689A637B689A6B7B7ADB0003F008031A437B689A637B689A6B7B7A5B101B0103F0AC
S32D000124A810031A437B689A637B68DB69FB60FB68FB72FB681B0ABB72FB681B0CDBB203F003037B727B685A6A0A
S32D000124D0FB7A5B0203F400731A437B685A627B685A6AFB7A5B101B0203F480731A437B685A627B689A6AFB7ABF
S32D000124F89B101B0103F010031A437B689A627B689A6AFB7ADB105B0103F020031A437B689A627B689A6AFB7A5B
S32D000125201B119B0103F040031A437B689A627B689A6AFB7A5B11DB01DBB21A437B689A627B689A6AFB7A9B11DD
S32D000125481B0303F480531A437B689A627B689A6A97F90B30DB115BB25B0303F400531A437B689A627B689A6ACA
S32D00012570BB7A9B0303F480431A437B689A627B689A6ABB7A5B10DB039BB21A437B689A627B689A6ABB7A9B10BE
S32D000125981B0403F480331A437B689A627B689A6ABB7ADB105B0403F400331A437B689A627B689A6ABB7A1B11FB
S32D000125C09B0403F480231A437B689A627B689A6ABB7A5B11DB0403F400231A437B689A627B68DA6ABB7A9B11B2
S32D000125E803F001031A437B68DA627B68DA6A97F90A30DB115BB29B0003F004031A437B68DA627B68DA6A7B7A3A
S32D00012610DB0003F008031A437B68DA627B68DA6A7B7A5B101B0103F010031A437B68DA6200BF1437BD4680BCD8
S32D00012638704780B483B000AF78607B6818460C37BD4680BC704780B584B000AFF860B9607A603B60FB682033A0
S32D00012660B968184603F0D4FCFB687A681A60FB683A689A60FB68BA691A61FB68FA695A61FB681A68FB681B69FD
S32D000126881A44FB685A60FB689A68FB685B691A44FB68DA60FB683A6A9A61FB687A6ADA61FB680022C3F8E82055
S32D000126B000BF1037BD4680BDF0B585B002AF78607B689B6919461F48FEF7B7FD7B6819687B689A687B6818694F
S32D000126D87B685B69009303461848FFF78CFA7B68DB6919461548FEF7A4FD7B6803F120047B681B681D467B6854
S32D000127001B691E467B682033184603F0F9FC024613465B0013449B00F31A5B082B4418467B689A687B685B698F
S32D00012728113BD90F0B445B101344024621460348FEF792FD00BF0C37BD46F0BD041A002080B584B002AF7860DD
S32D000127507B689B6919461F48FEF76FFD7B681B68591C7B689B685A1C7B681B69981E7B685B69023B0093034638
S32D000127781648FFF740FA7B681B68991C7B689B689A1C7B681B69181F7B685B69043B009303460E48FFF72FFA18
S32D000127A07B681B68D91C7B689B68DA1C7B681B69981F7B685B69063B009303460548FFF71EFA7B680122C3F8D5
S32D000127C8E82000BF0837BD4680BD00BF041A002080B584B002AF786000211F48FEF729FD7B681B68D91C7B68CC
S32D000127F09B68DA1C7B681B69981F7B685B69063B009303461648FFF7FAF97B681B68991C7B689B689A1C7B68FE
S32D000128181B69181F7B685B69043B009303460E48FFF7E9F97B681B68591C7B689B685A1C7B681B69981E7B68AF
S32D000128405B69023B009303460548FFF7D8F97B680022C3F8E82000BF0837BD4680BD00BF041A002080B584B00C
S32D0001286800AFF860B9607A603B60FB681B68184602F000F90246BB681946104602F0F6FA0346002B00F0818016
S32D00012890FB685B68184602F0F1F80246BB681946104602F0F1FA0346002B72D0FB689B68184602F0E3F802462E
S32D000128B87B681946104602F0D9FA0346002B64D0FB68DB68184602F0D5F802467B681946104602F0D5FA03463F
S32D000128E0002B56D03A1D07F1080319462B48FEF71BFDFB681B68184602F0C0F80246BB681946104602F0B6FA8F
S32D000129080346002B3FD0FB685B68184602F0B2F80246BB681946104602F0B2FA0346002B31D0FB689B68184606
S32D0001293002F0A4F802467B681946104602F09AFA0346002B23D0FB68DB68184602F096F802467B6819461046B9
